{
  "_format": "hh-sol-artifact-1",
  "contractName": "NFTMarketplace",
  "sourceName": "contracts/NFTMarketplace.sol",
  "abi": [
    {
      "inputs": [],
      "stateMutability": "nonpayable",
      "type": "constructor"
    },
    {
      "inputs": [
        {
          "internalType": "address",
          "name": "sender",
          "type": "address"
        },
        {
          "internalType": "uint256",
          "name": "tokenId",
          "type": "uint256"
        },
        {
          "internalType": "address",
          "name": "owner",
          "type": "address"
        }
      ],
      "name": "ERC721IncorrectOwner",
      "type": "error"
    },
    {
      "inputs": [
        {
          "internalType": "address",
          "name": "operator",
          "type": "address"
        },
        {
          "internalType": "uint256",
          "name": "tokenId",
          "type": "uint256"
        }
      ],
      "name": "ERC721InsufficientApproval",
      "type": "error"
    },
    {
      "inputs": [
        {
          "internalType": "address",
          "name": "approver",
          "type": "address"
        }
      ],
      "name": "ERC721InvalidApprover",
      "type": "error"
    },
    {
      "inputs": [
        {
          "internalType": "address",
          "name": "operator",
          "type": "address"
        }
      ],
      "name": "ERC721InvalidOperator",
      "type": "error"
    },
    {
      "inputs": [
        {
          "internalType": "address",
          "name": "owner",
          "type": "address"
        }
      ],
      "name": "ERC721InvalidOwner",
      "type": "error"
    },
    {
      "inputs": [
        {
          "internalType": "address",
          "name": "receiver",
          "type": "address"
        }
      ],
      "name": "ERC721InvalidReceiver",
      "type": "error"
    },
    {
      "inputs": [
        {
          "internalType": "address",
          "name": "sender",
          "type": "address"
        }
      ],
      "name": "ERC721InvalidSender",
      "type": "error"
    },
    {
      "inputs": [
        {
          "internalType": "uint256",
          "name": "tokenId",
          "type": "uint256"
        }
      ],
      "name": "ERC721NonexistentToken",
      "type": "error"
    },
    {
      "anonymous": false,
      "inputs": [
        {
          "indexed": true,
          "internalType": "address",
          "name": "owner",
          "type": "address"
        },
        {
          "indexed": true,
          "internalType": "address",
          "name": "approved",
          "type": "address"
        },
        {
          "indexed": true,
          "internalType": "uint256",
          "name": "tokenId",
          "type": "uint256"
        }
      ],
      "name": "Approval",
      "type": "event"
    },
    {
      "anonymous": false,
      "inputs": [
        {
          "indexed": true,
          "internalType": "address",
          "name": "owner",
          "type": "address"
        },
        {
          "indexed": true,
          "internalType": "address",
          "name": "operator",
          "type": "address"
        },
        {
          "indexed": false,
          "internalType": "bool",
          "name": "approved",
          "type": "bool"
        }
      ],
      "name": "ApprovalForAll",
      "type": "event"
    },
    {
      "anonymous": false,
      "inputs": [
        {
          "indexed": false,
          "internalType": "uint256",
          "name": "_fromTokenId",
          "type": "uint256"
        },
        {
          "indexed": false,
          "internalType": "uint256",
          "name": "_toTokenId",
          "type": "uint256"
        }
      ],
      "name": "BatchMetadataUpdate",
      "type": "event"
    },
    {
      "anonymous": false,
      "inputs": [
        {
          "indexed": true,
          "internalType": "uint256",
          "name": "tokenId",
          "type": "uint256"
        },
        {
          "indexed": false,
          "internalType": "address",
          "name": "seller",
          "type": "address"
        },
        {
          "indexed": false,
          "internalType": "address",
          "name": "owner",
          "type": "address"
        },
        {
          "indexed": false,
          "internalType": "uint256",
          "name": "price",
          "type": "uint256"
        },
        {
          "indexed": false,
          "internalType": "bool",
          "name": "sold",
          "type": "bool"
        }
      ],
      "name": "MarketItemCreated",
      "type": "event"
    },
    {
      "anonymous": false,
      "inputs": [
        {
          "indexed": false,
          "internalType": "uint256",
          "name": "_tokenId",
          "type": "uint256"
        }
      ],
      "name": "MetadataUpdate",
      "type": "event"
    },
    {
      "anonymous": false,
      "inputs": [
        {
          "indexed": true,
          "internalType": "address",
          "name": "from",
          "type": "address"
        },
        {
          "indexed": true,
          "internalType": "address",
          "name": "to",
          "type": "address"
        },
        {
          "indexed": true,
          "internalType": "uint256",
          "name": "tokenId",
          "type": "uint256"
        }
      ],
      "name": "Transfer",
      "type": "event"
    },
    {
      "inputs": [
        {
          "internalType": "address",
          "name": "to",
          "type": "address"
        },
        {
          "internalType": "uint256",
          "name": "tokenId",
          "type": "uint256"
        }
      ],
      "name": "approve",
      "outputs": [],
      "stateMutability": "nonpayable",
      "type": "function"
    },
    {
      "inputs": [
        {
          "internalType": "address",
          "name": "owner",
          "type": "address"
        }
      ],
      "name": "balanceOf",
      "outputs": [
        {
          "internalType": "uint256",
          "name": "",
          "type": "uint256"
        }
      ],
      "stateMutability": "view",
      "type": "function"
    },
    {
      "inputs": [
        {
          "internalType": "uint256",
          "name": "_tokenId",
          "type": "uint256"
        }
      ],
      "name": "createMarketSale",
      "outputs": [],
      "stateMutability": "payable",
      "type": "function"
    },
    {
      "inputs": [
        {
          "internalType": "string",
          "name": "_tokenURI",
          "type": "string"
        },
        {
          "internalType": "uint256",
          "name": "_price",
          "type": "uint256"
        }
      ],
      "name": "createToken",
      "outputs": [
        {
          "internalType": "uint256",
          "name": "",
          "type": "uint256"
        }
      ],
      "stateMutability": "payable",
      "type": "function"
    },
    {
      "inputs": [],
      "name": "fetchListedItems",
      "outputs": [
        {
          "components": [
            {
              "internalType": "uint256",
              "name": "tokenId",
              "type": "uint256"
            },
            {
              "internalType": "address payable",
              "name": "seller",
              "type": "address"
            },
            {
              "internalType": "address payable",
              "name": "owner",
              "type": "address"
            },
            {
              "internalType": "uint256",
              "name": "price",
              "type": "uint256"
            },
            {
              "internalType": "bool",
              "name": "sold",
              "type": "bool"
            }
          ],
          "internalType": "struct NFTMarketplace.MarketItem[]",
          "name": "",
          "type": "tuple[]"
        }
      ],
      "stateMutability": "view",
      "type": "function"
    },
    {
      "inputs": [],
      "name": "fetchMarketItems",
      "outputs": [
        {
          "components": [
            {
              "internalType": "uint256",
              "name": "tokenId",
              "type": "uint256"
            },
            {
              "internalType": "address payable",
              "name": "seller",
              "type": "address"
            },
            {
              "internalType": "address payable",
              "name": "owner",
              "type": "address"
            },
            {
              "internalType": "uint256",
              "name": "price",
              "type": "uint256"
            },
            {
              "internalType": "bool",
              "name": "sold",
              "type": "bool"
            }
          ],
          "internalType": "struct NFTMarketplace.MarketItem[]",
          "name": "",
          "type": "tuple[]"
        }
      ],
      "stateMutability": "view",
      "type": "function"
    },
    {
      "inputs": [],
      "name": "fetchMyNFTs",
      "outputs": [
        {
          "components": [
            {
              "internalType": "uint256",
              "name": "tokenId",
              "type": "uint256"
            },
            {
              "internalType": "address payable",
              "name": "seller",
              "type": "address"
            },
            {
              "internalType": "address payable",
              "name": "owner",
              "type": "address"
            },
            {
              "internalType": "uint256",
              "name": "price",
              "type": "uint256"
            },
            {
              "internalType": "bool",
              "name": "sold",
              "type": "bool"
            }
          ],
          "internalType": "struct NFTMarketplace.MarketItem[]",
          "name": "",
          "type": "tuple[]"
        }
      ],
      "stateMutability": "view",
      "type": "function"
    },
    {
      "inputs": [
        {
          "internalType": "uint256",
          "name": "tokenId",
          "type": "uint256"
        }
      ],
      "name": "getApproved",
      "outputs": [
        {
          "internalType": "address",
          "name": "",
          "type": "address"
        }
      ],
      "stateMutability": "view",
      "type": "function"
    },
    {
      "inputs": [],
      "name": "getListingPrice",
      "outputs": [
        {
          "internalType": "uint256",
          "name": "",
          "type": "uint256"
        }
      ],
      "stateMutability": "view",
      "type": "function"
    },
    {
      "inputs": [
        {
          "internalType": "address",
          "name": "owner",
          "type": "address"
        },
        {
          "internalType": "address",
          "name": "operator",
          "type": "address"
        }
      ],
      "name": "isApprovedForAll",
      "outputs": [
        {
          "internalType": "bool",
          "name": "",
          "type": "bool"
        }
      ],
      "stateMutability": "view",
      "type": "function"
    },
    {
      "inputs": [],
      "name": "name",
      "outputs": [
        {
          "internalType": "string",
          "name": "",
          "type": "string"
        }
      ],
      "stateMutability": "view",
      "type": "function"
    },
    {
      "inputs": [
        {
          "internalType": "uint256",
          "name": "tokenId",
          "type": "uint256"
        }
      ],
      "name": "ownerOf",
      "outputs": [
        {
          "internalType": "address",
          "name": "",
          "type": "address"
        }
      ],
      "stateMutability": "view",
      "type": "function"
    },
    {
      "inputs": [
        {
          "internalType": "uint256",
          "name": "_tokenId",
          "type": "uint256"
        },
        {
          "internalType": "uint256",
          "name": "_price",
          "type": "uint256"
        }
      ],
      "name": "reSellToken",
      "outputs": [],
      "stateMutability": "payable",
      "type": "function"
    },
    {
      "inputs": [
        {
          "internalType": "address",
          "name": "from",
          "type": "address"
        },
        {
          "internalType": "address",
          "name": "to",
          "type": "address"
        },
        {
          "internalType": "uint256",
          "name": "tokenId",
          "type": "uint256"
        }
      ],
      "name": "safeTransferFrom",
      "outputs": [],
      "stateMutability": "nonpayable",
      "type": "function"
    },
    {
      "inputs": [
        {
          "internalType": "address",
          "name": "from",
          "type": "address"
        },
        {
          "internalType": "address",
          "name": "to",
          "type": "address"
        },
        {
          "internalType": "uint256",
          "name": "tokenId",
          "type": "uint256"
        },
        {
          "internalType": "bytes",
          "name": "data",
          "type": "bytes"
        }
      ],
      "name": "safeTransferFrom",
      "outputs": [],
      "stateMutability": "nonpayable",
      "type": "function"
    },
    {
      "inputs": [
        {
          "internalType": "address",
          "name": "operator",
          "type": "address"
        },
        {
          "internalType": "bool",
          "name": "approved",
          "type": "bool"
        }
      ],
      "name": "setApprovalForAll",
      "outputs": [],
      "stateMutability": "nonpayable",
      "type": "function"
    },
    {
      "inputs": [
        {
          "internalType": "bytes4",
          "name": "interfaceId",
          "type": "bytes4"
        }
      ],
      "name": "supportsInterface",
      "outputs": [
        {
          "internalType": "bool",
          "name": "",
          "type": "bool"
        }
      ],
      "stateMutability": "view",
      "type": "function"
    },
    {
      "inputs": [],
      "name": "symbol",
      "outputs": [
        {
          "internalType": "string",
          "name": "",
          "type": "string"
        }
      ],
      "stateMutability": "view",
      "type": "function"
    },
    {
      "inputs": [
        {
          "internalType": "uint256",
          "name": "tokenId",
          "type": "uint256"
        }
      ],
      "name": "tokenURI",
      "outputs": [
        {
          "internalType": "string",
          "name": "",
          "type": "string"
        }
      ],
      "stateMutability": "view",
      "type": "function"
    },
    {
      "inputs": [
        {
          "internalType": "address",
          "name": "from",
          "type": "address"
        },
        {
          "internalType": "address",
          "name": "to",
          "type": "address"
        },
        {
          "internalType": "uint256",
          "name": "tokenId",
          "type": "uint256"
        }
      ],
      "name": "transferFrom",
      "outputs": [],
      "stateMutability": "nonpayable",
      "type": "function"
    },
    {
      "inputs": [
        {
          "internalType": "uint256",
          "name": "_listingPrice",
          "type": "uint256"
        }
      ],
      "name": "updateListingPrice",
      "outputs": [],
      "stateMutability": "payable",
      "type": "function"
    }
  ],
  "bytecode": "0x60806040526658d15e17628000600a553480156200001c57600080fd5b506040518060400160405280601081526020017f546563587261204e465420546f6b656e000000000000000000000000000000008152506040518060400160405280600481526020017f54584e540000000000000000000000000000000000000000000000000000000081525081600090816200009a919062000370565b508060019081620000ac919062000370565b50505033600960006101000a81548173ffffffffffffffffffffffffffffffffffffffff021916908373ffffffffffffffffffffffffffffffffffffffff16021790555062000457565b600081519050919050565b7f4e487b7100000000000000000000000000000000000000000000000000000000600052604160045260246000fd5b7f4e487b7100000000000000000000000000000000000000000000000000000000600052602260045260246000fd5b600060028204905060018216806200017857607f821691505b6020821081036200018e576200018d62000130565b5b50919050565b60008190508160005260206000209050919050565b60006020601f8301049050919050565b600082821b905092915050565b600060088302620001f87fffffffffffffffffffffffffffffffffffffffffffffffffffffffffffffffff82620001b9565b620002048683620001b9565b95508019841693508086168417925050509392505050565b6000819050919050565b6000819050919050565b6000620002516200024b62000245846200021c565b62000226565b6200021c565b9050919050565b6000819050919050565b6200026d8362000230565b620002856200027c8262000258565b848454620001c6565b825550505050565b600090565b6200029c6200028d565b620002a981848462000262565b505050565b5b81811015620002d157620002c560008262000292565b600181019050620002af565b5050565b601f8211156200032057620002ea8162000194565b620002f584620001a9565b8101602085101562000305578190505b6200031d6200031485620001a9565b830182620002ae565b50505b505050565b600082821c905092915050565b6000620003456000198460080262000325565b1980831691505092915050565b600062000360838362000332565b9150826002028217905092915050565b6200037b82620000f6565b67ffffffffffffffff81111562000397576200039662000101565b5b620003a382546200015f565b620003b0828285620002d5565b600060209050601f831160018114620003e85760008415620003d3578287015190505b620003df858262000352565b8655506200044f565b601f198416620003f88662000194565b60005b828110156200042257848901518255600182019150602085019450602081019050620003fb565b868310156200044257848901516200043e601f89168262000332565b8355505b6001600288020188555050505b505050505050565b613c7080620004676000396000f3fe60806040526004361061012a5760003560e01c806370a08231116100ab578063ae677aa31161006f578063ae677aa3146103ea578063b88d4fde14610406578063be9af5361461042f578063c87b56dd1461044b578063cfd31e2c14610488578063e985e9c5146104b35761012a565b806370a082311461030d57806372b3b6201461034a57806385535b251461037a57806395d89b4114610396578063a22cb465146103c15761012a565b806312e85585116100f257806312e8558514610228578063202e37401461025357806323b872dd1461027e57806342842e0e146102a75780636352211e146102d05761012a565b806301ffc9a71461012f57806306fdde031461016c578063081812fc14610197578063095ea7b3146101d45780630f08efe0146101fd575b600080fd5b34801561013b57600080fd5b5061015660048036038101906101519190612ac5565b6104f0565b6040516101639190612b0d565b60405180910390f35b34801561017857600080fd5b50610181610551565b60405161018e9190612bb8565b60405180910390f35b3480156101a357600080fd5b506101be60048036038101906101b99190612c10565b6105e3565b6040516101cb9190612c7e565b60405180910390f35b3480156101e057600080fd5b506101fb60048036038101906101f69190612cc5565b6105ff565b005b34801561020957600080fd5b50610212610615565b60405161021f9190612e5b565b60405180910390f35b34801561023457600080fd5b5061023d610862565b60405161024a9190612e8c565b60405180910390f35b34801561025f57600080fd5b5061026861086c565b6040516102759190612e5b565b60405180910390f35b34801561028a57600080fd5b506102a560048036038101906102a09190612ea7565b610b45565b005b3480156102b357600080fd5b506102ce60048036038101906102c99190612ea7565b610c47565b005b3480156102dc57600080fd5b506102f760048036038101906102f29190612c10565b610c67565b6040516103049190612c7e565b60405180910390f35b34801561031957600080fd5b50610334600480360381019061032f9190612efa565b610c79565b6040516103419190612e8c565b60405180910390f35b610364600480360381019061035f919061305c565b610d33565b6040516103719190612e8c565b60405180910390f35b610394600480360381019061038f91906130b8565b610d7c565b005b3480156103a257600080fd5b506103ab610f7f565b6040516103b89190612bb8565b60405180910390f35b3480156103cd57600080fd5b506103e860048036038101906103e39190613124565b611011565b005b61040460048036038101906103ff9190612c10565b611027565b005b34801561041257600080fd5b5061042d60048036038101906104289190613205565b6110c1565b005b61044960048036038101906104449190612c10565b6110de565b005b34801561045757600080fd5b50610472600480360381019061046d9190612c10565b611324565b60405161047f9190612bb8565b60405180910390f35b34801561049457600080fd5b5061049d611437565b6040516104aa9190612e5b565b60405180910390f35b3480156104bf57600080fd5b506104da60048036038101906104d59190613288565b611710565b6040516104e79190612b0d565b60405180910390f35b6000634906490660e01b7bffffffffffffffffffffffffffffffffffffffffffffffffffffffff1916827bffffffffffffffffffffffffffffffffffffffffffffffffffffffff1916148061054a5750610549826117a4565b5b9050919050565b606060008054610560906132f7565b80601f016020809104026020016040519081016040528092919081815260200182805461058c906132f7565b80156105d95780601f106105ae576101008083540402835291602001916105d9565b820191906000526020600020905b8154815290600101906020018083116105bc57829003601f168201915b5050505050905090565b60006105ee82611886565b506105f88261190e565b9050919050565b610611828261060c61194b565b611953565b5050565b60606000600754905060006008546007546106309190613357565b90506000808267ffffffffffffffff81111561064f5761064e612f31565b5b60405190808252806020026020018201604052801561068857816020015b6106756129fc565b81526020019060019003908161066d5790505b50905060005b84811015610857573073ffffffffffffffffffffffffffffffffffffffff16600b60006001846106be919061338b565b815260200190815260200160002060020160009054906101000a900473ffffffffffffffffffffffffffffffffffffffff1673ffffffffffffffffffffffffffffffffffffffff160361084a57600060018261071a919061338b565b90506000600b60008381526020019081526020016000209050806040518060a0016040529081600082015481526020016001820160009054906101000a900473ffffffffffffffffffffffffffffffffffffffff1673ffffffffffffffffffffffffffffffffffffffff1673ffffffffffffffffffffffffffffffffffffffff1681526020016002820160009054906101000a900473ffffffffffffffffffffffffffffffffffffffff1673ffffffffffffffffffffffffffffffffffffffff1673ffffffffffffffffffffffffffffffffffffffff168152602001600382015481526020016004820160009054906101000a900460ff16151515158152505084868151811061082d5761082c6133bf565b5b6020026020010181905250600185610845919061338b565b945050505b808060010191505061068e565b508094505050505090565b6000600a54905090565b60606000600754905060008060005b83811015610915573373ffffffffffffffffffffffffffffffffffffffff16600b60006001846108ab919061338b565b815260200190815260200160002060020160009054906101000a900473ffffffffffffffffffffffffffffffffffffffff1673ffffffffffffffffffffffffffffffffffffffff160361090857600183610905919061338b565b92505b808060010191505061087b565b5060008267ffffffffffffffff81111561093257610931612f31565b5b60405190808252806020026020018201604052801561096b57816020015b6109586129fc565b8152602001906001900390816109505790505b50905060005b84811015610b3a573373ffffffffffffffffffffffffffffffffffffffff16600b60006001846109a1919061338b565b815260200190815260200160002060020160009054906101000a900473ffffffffffffffffffffffffffffffffffffffff1673ffffffffffffffffffffffffffffffffffffffff1603610b2d5760006001826109fd919061338b565b90506000600b60008381526020019081526020016000209050806040518060a0016040529081600082015481526020016001820160009054906101000a900473ffffffffffffffffffffffffffffffffffffffff1673ffffffffffffffffffffffffffffffffffffffff1673ffffffffffffffffffffffffffffffffffffffff1681526020016002820160009054906101000a900473ffffffffffffffffffffffffffffffffffffffff1673ffffffffffffffffffffffffffffffffffffffff1673ffffffffffffffffffffffffffffffffffffffff168152602001600382015481526020016004820160009054906101000a900460ff161515151581525050848681518110610b1057610b0f6133bf565b5b6020026020010181905250600185610b28919061338b565b945050505b8080600101915050610971565b508094505050505090565b600073ffffffffffffffffffffffffffffffffffffffff168273ffffffffffffffffffffffffffffffffffffffff1603610bb75760006040517f64a0ae92000000000000000000000000000000000000000000000000000000008152600401610bae9190612c7e565b60405180910390fd5b6000610bcb8383610bc661194b565b611965565b90508373ffffffffffffffffffffffffffffffffffffffff168173ffffffffffffffffffffffffffffffffffffffff1614610c41578382826040517f64283d7b000000000000000000000000000000000000000000000000000000008152600401610c38939291906133ee565b60405180910390fd5b50505050565b610c62838383604051806020016040528060008152506110c1565b505050565b6000610c7282611886565b9050919050565b60008073ffffffffffffffffffffffffffffffffffffffff168273ffffffffffffffffffffffffffffffffffffffff1603610cec5760006040517f89c62b64000000000000000000000000000000000000000000000000000000008152600401610ce39190612c7e565b60405180910390fd5b600360008373ffffffffffffffffffffffffffffffffffffffff1673ffffffffffffffffffffffffffffffffffffffff168152602001908152602001600020549050919050565b600060076000815480929190610d4890613425565b919050555060006007549050610d5e3382611b7f565b610d688185611c78565b610d728184611cd4565b8091505092915050565b3373ffffffffffffffffffffffffffffffffffffffff16600b600084815260200190815260200160002060020160009054906101000a900473ffffffffffffffffffffffffffffffffffffffff1673ffffffffffffffffffffffffffffffffffffffff1614610e20576040517f08c379a0000000000000000000000000000000000000000000000000000000008152600401610e17906134df565b60405180910390fd5b600a543414610e64576040517f08c379a0000000000000000000000000000000000000000000000000000000008152600401610e5b90613571565b60405180910390fd5b6000600b600084815260200190815260200160002060040160006101000a81548160ff02191690831515021790555080600b60008481526020019081526020016000206003018190555033600b600084815260200190815260200160002060010160006101000a81548173ffffffffffffffffffffffffffffffffffffffff021916908373ffffffffffffffffffffffffffffffffffffffff16021790555030600b600084815260200190815260200160002060020160006101000a81548173ffffffffffffffffffffffffffffffffffffffff021916908373ffffffffffffffffffffffffffffffffffffffff16021790555060086000815480929190610f6b90613591565b9190505550610f7b333084611ed7565b5050565b606060018054610f8e906132f7565b80601f0160208091040260200160405190810160405280929190818152602001828054610fba906132f7565b80156110075780601f10610fdc57610100808354040283529160200191611007565b820191906000526020600020905b815481529060010190602001808311610fea57829003601f168201915b5050505050905090565b61102361101c61194b565b8383612044565b5050565b600960009054906101000a900473ffffffffffffffffffffffffffffffffffffffff1673ffffffffffffffffffffffffffffffffffffffff163373ffffffffffffffffffffffffffffffffffffffff16146110b7576040517f08c379a00000000000000000000000000000000000000000000000000000000081526004016110ae9061362c565b60405180910390fd5b80600a8190555050565b6110cc848484610b45565b6110d8848484846121b3565b50505050565b6000600b600083815260200190815260200160002060030154905080341461113b576040517f08c379a0000000000000000000000000000000000000000000000000000000008152600401611132906136be565b60405180910390fd5b33600b600084815260200190815260200160002060020160006101000a81548173ffffffffffffffffffffffffffffffffffffffff021916908373ffffffffffffffffffffffffffffffffffffffff1602179055506001600b600084815260200190815260200160002060040160006101000a81548160ff0219169083151502179055506000600b600084815260200190815260200160002060020160006101000a81548173ffffffffffffffffffffffffffffffffffffffff021916908373ffffffffffffffffffffffffffffffffffffffff1602179055506008600081548092919061122890613425565b9190505550611238303384611ed7565b600960009054906101000a900473ffffffffffffffffffffffffffffffffffffffff1673ffffffffffffffffffffffffffffffffffffffff166108fc600a549081150290604051600060405180830381858888f193505050501580156112a2573d6000803e3d6000fd5b50600b600083815260200190815260200160002060010160009054906101000a900473ffffffffffffffffffffffffffffffffffffffff1673ffffffffffffffffffffffffffffffffffffffff166108fc349081150290604051600060405180830381858888f1935050505015801561131f573d6000803e3d6000fd5b505050565b606061132f82611886565b506000600660008481526020019081526020016000208054611350906132f7565b80601f016020809104026020016040519081016040528092919081815260200182805461137c906132f7565b80156113c95780601f1061139e576101008083540402835291602001916113c9565b820191906000526020600020905b8154815290600101906020018083116113ac57829003601f168201915b5050505050905060006113da61236a565b905060008151036113ef578192505050611432565b60008251111561142457808260405160200161140c92919061371a565b60405160208183030381529060405292505050611432565b61142d84612381565b925050505b919050565b60606000600754905060008060005b838110156114e0573373ffffffffffffffffffffffffffffffffffffffff16600b6000600184611476919061338b565b815260200190815260200160002060010160009054906101000a900473ffffffffffffffffffffffffffffffffffffffff1673ffffffffffffffffffffffffffffffffffffffff16036114d3576001836114d0919061338b565b92505b8080600101915050611446565b5060008267ffffffffffffffff8111156114fd576114fc612f31565b5b60405190808252806020026020018201604052801561153657816020015b6115236129fc565b81526020019060019003908161151b5790505b50905060005b84811015611705573373ffffffffffffffffffffffffffffffffffffffff16600b600060018461156c919061338b565b815260200190815260200160002060010160009054906101000a900473ffffffffffffffffffffffffffffffffffffffff1673ffffffffffffffffffffffffffffffffffffffff16036116f85760006001826115c8919061338b565b90506000600b60008381526020019081526020016000209050806040518060a0016040529081600082015481526020016001820160009054906101000a900473ffffffffffffffffffffffffffffffffffffffff1673ffffffffffffffffffffffffffffffffffffffff1673ffffffffffffffffffffffffffffffffffffffff1681526020016002820160009054906101000a900473ffffffffffffffffffffffffffffffffffffffff1673ffffffffffffffffffffffffffffffffffffffff1673ffffffffffffffffffffffffffffffffffffffff168152602001600382015481526020016004820160009054906101000a900460ff1615151515815250508486815181106116db576116da6133bf565b5b60200260200101819052506001856116f3919061338b565b945050505b808060010191505061153c565b508094505050505090565b6000600560008473ffffffffffffffffffffffffffffffffffffffff1673ffffffffffffffffffffffffffffffffffffffff16815260200190815260200160002060008373ffffffffffffffffffffffffffffffffffffffff1673ffffffffffffffffffffffffffffffffffffffff16815260200190815260200160002060009054906101000a900460ff16905092915050565b60007f80ac58cd000000000000000000000000000000000000000000000000000000007bffffffffffffffffffffffffffffffffffffffffffffffffffffffff1916827bffffffffffffffffffffffffffffffffffffffffffffffffffffffff1916148061186f57507f5b5e139f000000000000000000000000000000000000000000000000000000007bffffffffffffffffffffffffffffffffffffffffffffffffffffffff1916827bffffffffffffffffffffffffffffffffffffffffffffffffffffffff1916145b8061187f575061187e826123ea565b5b9050919050565b60008061189283612454565b9050600073ffffffffffffffffffffffffffffffffffffffff168173ffffffffffffffffffffffffffffffffffffffff160361190557826040517f7e2732890000000000000000000000000000000000000000000000000000000081526004016118fc9190612e8c565b60405180910390fd5b80915050919050565b60006004600083815260200190815260200160002060009054906101000a900473ffffffffffffffffffffffffffffffffffffffff169050919050565b600033905090565b6119608383836001612491565b505050565b60008061197184612454565b9050600073ffffffffffffffffffffffffffffffffffffffff168373ffffffffffffffffffffffffffffffffffffffff16146119b3576119b2818486612656565b5b600073ffffffffffffffffffffffffffffffffffffffff168173ffffffffffffffffffffffffffffffffffffffff1614611a44576119f5600085600080612491565b6001600360008373ffffffffffffffffffffffffffffffffffffffff1673ffffffffffffffffffffffffffffffffffffffff168152602001908152602001600020600082825403925050819055505b600073ffffffffffffffffffffffffffffffffffffffff168573ffffffffffffffffffffffffffffffffffffffff1614611ac7576001600360008773ffffffffffffffffffffffffffffffffffffffff1673ffffffffffffffffffffffffffffffffffffffff168152602001908152602001600020600082825401925050819055505b846002600086815260200190815260200160002060006101000a81548173ffffffffffffffffffffffffffffffffffffffff021916908373ffffffffffffffffffffffffffffffffffffffff160217905550838573ffffffffffffffffffffffffffffffffffffffff168273ffffffffffffffffffffffffffffffffffffffff167fddf252ad1be2c89b69c2b068fc378daa952ba7f163c4a11628f55a4df523b3ef60405160405180910390a4809150509392505050565b600073ffffffffffffffffffffffffffffffffffffffff168273ffffffffffffffffffffffffffffffffffffffff1603611bf15760006040517f64a0ae92000000000000000000000000000000000000000000000000000000008152600401611be89190612c7e565b60405180910390fd5b6000611bff83836000611965565b9050600073ffffffffffffffffffffffffffffffffffffffff168173ffffffffffffffffffffffffffffffffffffffff1614611c735760006040517f73c6ac6e000000000000000000000000000000000000000000000000000000008152600401611c6a9190612c7e565b60405180910390fd5b505050565b80600660008481526020019081526020016000209081611c9891906138ea565b507ff8e1a15aba9398e019f0b49df1a4fde98ee17ae345cb5f6b5e2c27f5033e8ce782604051611cc89190612e8c565b60405180910390a15050565b60008111611d17576040517f08c379a0000000000000000000000000000000000000000000000000000000008152600401611d0e90613a08565b60405180910390fd5b600a543414611d5b576040517f08c379a0000000000000000000000000000000000000000000000000000000008152600401611d5290613a9a565b60405180910390fd5b6040518060a001604052808381526020013373ffffffffffffffffffffffffffffffffffffffff1681526020013073ffffffffffffffffffffffffffffffffffffffff16815260200182815260200160001515815250600b60008481526020019081526020016000206000820151816000015560208201518160010160006101000a81548173ffffffffffffffffffffffffffffffffffffffff021916908373ffffffffffffffffffffffffffffffffffffffff16021790555060408201518160020160006101000a81548173ffffffffffffffffffffffffffffffffffffffff021916908373ffffffffffffffffffffffffffffffffffffffff1602179055506060820151816003015560808201518160040160006101000a81548160ff021916908315150217905550905050611e94333084611ed7565b817fb640004f1d14576d0c209e240cad0410e0d8c0c33a09375861fbadae2588a98d3330846000604051611ecb9493929190613aba565b60405180910390a25050565b600073ffffffffffffffffffffffffffffffffffffffff168273ffffffffffffffffffffffffffffffffffffffff1603611f495760006040517f64a0ae92000000000000000000000000000000000000000000000000000000008152600401611f409190612c7e565b60405180910390fd5b6000611f5783836000611965565b9050600073ffffffffffffffffffffffffffffffffffffffff168173ffffffffffffffffffffffffffffffffffffffff1603611fca57816040517f7e273289000000000000000000000000000000000000000000000000000000008152600401611fc19190612e8c565b60405180910390fd5b8373ffffffffffffffffffffffffffffffffffffffff168173ffffffffffffffffffffffffffffffffffffffff161461203e578382826040517f64283d7b000000000000000000000000000000000000000000000000000000008152600401612035939291906133ee565b60405180910390fd5b50505050565b600073ffffffffffffffffffffffffffffffffffffffff168273ffffffffffffffffffffffffffffffffffffffff16036120b557816040517f5b08ba180000000000000000000000000000000000000000000000000000000081526004016120ac9190612c7e565b60405180910390fd5b80600560008573ffffffffffffffffffffffffffffffffffffffff1673ffffffffffffffffffffffffffffffffffffffff16815260200190815260200160002060008473ffffffffffffffffffffffffffffffffffffffff1673ffffffffffffffffffffffffffffffffffffffff16815260200190815260200160002060006101000a81548160ff0219169083151502179055508173ffffffffffffffffffffffffffffffffffffffff168373ffffffffffffffffffffffffffffffffffffffff167f17307eab39ab6107e8899845ad3d59bd9653f200f220920489ca2b5937696c31836040516121a69190612b0d565b60405180910390a3505050565b60008373ffffffffffffffffffffffffffffffffffffffff163b1115612364578273ffffffffffffffffffffffffffffffffffffffff1663150b7a026121f761194b565b8685856040518563ffffffff1660e01b81526004016122199493929190613b54565b6020604051808303816000875af192505050801561225557506040513d601f19601f820116820180604052508101906122529190613bb5565b60015b6122d9573d8060008114612285576040519150601f19603f3d011682016040523d82523d6000602084013e61228a565b606091505b5060008151036122d157836040517f64a0ae920000000000000000000000000000000000000000000000000000000081526004016122c89190612c7e565b60405180910390fd5b805181602001fd5b63150b7a0260e01b7bffffffffffffffffffffffffffffffffffffffffffffffffffffffff1916817bffffffffffffffffffffffffffffffffffffffffffffffffffffffff19161461236257836040517f64a0ae920000000000000000000000000000000000000000000000000000000081526004016123599190612c7e565b60405180910390fd5b505b50505050565b606060405180602001604052806000815250905090565b606061238c82611886565b50600061239761236a565b905060008151116123b757604051806020016040528060008152506123e2565b806123c18461271a565b6040516020016123d292919061371a565b6040516020818303038152906040525b915050919050565b60007f01ffc9a7000000000000000000000000000000000000000000000000000000007bffffffffffffffffffffffffffffffffffffffffffffffffffffffff1916827bffffffffffffffffffffffffffffffffffffffffffffffffffffffff1916149050919050565b60006002600083815260200190815260200160002060009054906101000a900473ffffffffffffffffffffffffffffffffffffffff169050919050565b80806124ca5750600073ffffffffffffffffffffffffffffffffffffffff168273ffffffffffffffffffffffffffffffffffffffff1614155b156125fe5760006124da84611886565b9050600073ffffffffffffffffffffffffffffffffffffffff168373ffffffffffffffffffffffffffffffffffffffff161415801561254557508273ffffffffffffffffffffffffffffffffffffffff168173ffffffffffffffffffffffffffffffffffffffff1614155b801561255857506125568184611710565b155b1561259a57826040517fa9fbf51f0000000000000000000000000000000000000000000000000000000081526004016125919190612c7e565b60405180910390fd5b81156125fc57838573ffffffffffffffffffffffffffffffffffffffff168273ffffffffffffffffffffffffffffffffffffffff167f8c5be1e5ebec7d5bd14f71427d1e84f3dd0314c0f7b2291e5b200ac8c7c3b92560405160405180910390a45b505b836004600085815260200190815260200160002060006101000a81548173ffffffffffffffffffffffffffffffffffffffff021916908373ffffffffffffffffffffffffffffffffffffffff16021790555050505050565b6126618383836127e8565b61271557600073ffffffffffffffffffffffffffffffffffffffff168373ffffffffffffffffffffffffffffffffffffffff16036126d657806040517f7e2732890000000000000000000000000000000000000000000000000000000081526004016126cd9190612e8c565b60405180910390fd5b81816040517f177e802f00000000000000000000000000000000000000000000000000000000815260040161270c929190613be2565b60405180910390fd5b505050565b606060006001612729846128a9565b01905060008167ffffffffffffffff81111561274857612747612f31565b5b6040519080825280601f01601f19166020018201604052801561277a5781602001600182028036833780820191505090505b509050600082602001820190505b6001156127dd578080600190039150507f3031323334353637383961626364656600000000000000000000000000000000600a86061a8153600a85816127d1576127d0613c0b565b5b04945060008503612788575b819350505050919050565b60008073ffffffffffffffffffffffffffffffffffffffff168373ffffffffffffffffffffffffffffffffffffffff16141580156128a057508273ffffffffffffffffffffffffffffffffffffffff168473ffffffffffffffffffffffffffffffffffffffff16148061286157506128608484611710565b5b8061289f57508273ffffffffffffffffffffffffffffffffffffffff166128878361190e565b73ffffffffffffffffffffffffffffffffffffffff16145b5b90509392505050565b600080600090507a184f03e93ff9f4daa797ed6e38ed64bf6a1f0100000000000000008310612907577a184f03e93ff9f4daa797ed6e38ed64bf6a1f01000000000000000083816128fd576128fc613c0b565b5b0492506040810190505b6d04ee2d6d415b85acef81000000008310612944576d04ee2d6d415b85acef8100000000838161293a57612939613c0b565b5b0492506020810190505b662386f26fc10000831061297357662386f26fc10000838161296957612968613c0b565b5b0492506010810190505b6305f5e100831061299c576305f5e100838161299257612991613c0b565b5b0492506008810190505b61271083106129c15761271083816129b7576129b6613c0b565b5b0492506004810190505b606483106129e457606483816129da576129d9613c0b565b5b0492506002810190505b600a83106129f3576001810190505b80915050919050565b6040518060a0016040528060008152602001600073ffffffffffffffffffffffffffffffffffffffff168152602001600073ffffffffffffffffffffffffffffffffffffffff168152602001600081526020016000151581525090565b6000604051905090565b600080fd5b600080fd5b60007fffffffff0000000000000000000000000000000000000000000000000000000082169050919050565b612aa281612a6d565b8114612aad57600080fd5b50565b600081359050612abf81612a99565b92915050565b600060208284031215612adb57612ada612a63565b5b6000612ae984828501612ab0565b91505092915050565b60008115159050919050565b612b0781612af2565b82525050565b6000602082019050612b226000830184612afe565b92915050565b600081519050919050565b600082825260208201905092915050565b60005b83811015612b62578082015181840152602081019050612b47565b60008484015250505050565b6000601f19601f8301169050919050565b6000612b8a82612b28565b612b948185612b33565b9350612ba4818560208601612b44565b612bad81612b6e565b840191505092915050565b60006020820190508181036000830152612bd28184612b7f565b905092915050565b6000819050919050565b612bed81612bda565b8114612bf857600080fd5b50565b600081359050612c0a81612be4565b92915050565b600060208284031215612c2657612c25612a63565b5b6000612c3484828501612bfb565b91505092915050565b600073ffffffffffffffffffffffffffffffffffffffff82169050919050565b6000612c6882612c3d565b9050919050565b612c7881612c5d565b82525050565b6000602082019050612c936000830184612c6f565b92915050565b612ca281612c5d565b8114612cad57600080fd5b50565b600081359050612cbf81612c99565b92915050565b60008060408385031215612cdc57612cdb612a63565b5b6000612cea85828601612cb0565b9250506020612cfb85828601612bfb565b9150509250929050565b600081519050919050565b600082825260208201905092915050565b6000819050602082019050919050565b612d3a81612bda565b82525050565b6000612d4b82612c3d565b9050919050565b612d5b81612d40565b82525050565b612d6a81612af2565b82525050565b60a082016000820151612d866000850182612d31565b506020820151612d996020850182612d52565b506040820151612dac6040850182612d52565b506060820151612dbf6060850182612d31565b506080820151612dd26080850182612d61565b50505050565b6000612de48383612d70565b60a08301905092915050565b6000602082019050919050565b6000612e0882612d05565b612e128185612d10565b9350612e1d83612d21565b8060005b83811015612e4e578151612e358882612dd8565b9750612e4083612df0565b925050600181019050612e21565b5085935050505092915050565b60006020820190508181036000830152612e758184612dfd565b905092915050565b612e8681612bda565b82525050565b6000602082019050612ea16000830184612e7d565b92915050565b600080600060608486031215612ec057612ebf612a63565b5b6000612ece86828701612cb0565b9350506020612edf86828701612cb0565b9250506040612ef086828701612bfb565b9150509250925092565b600060208284031215612f1057612f0f612a63565b5b6000612f1e84828501612cb0565b91505092915050565b600080fd5b600080fd5b7f4e487b7100000000000000000000000000000000000000000000000000000000600052604160045260246000fd5b612f6982612b6e565b810181811067ffffffffffffffff82111715612f8857612f87612f31565b5b80604052505050565b6000612f9b612a59565b9050612fa78282612f60565b919050565b600067ffffffffffffffff821115612fc757612fc6612f31565b5b612fd082612b6e565b9050602081019050919050565b82818337600083830152505050565b6000612fff612ffa84612fac565b612f91565b90508281526020810184848401111561301b5761301a612f2c565b5b613026848285612fdd565b509392505050565b600082601f83011261304357613042612f27565b5b8135613053848260208601612fec565b91505092915050565b6000806040838503121561307357613072612a63565b5b600083013567ffffffffffffffff81111561309157613090612a68565b5b61309d8582860161302e565b92505060206130ae85828601612bfb565b9150509250929050565b600080604083850312156130cf576130ce612a63565b5b60006130dd85828601612bfb565b92505060206130ee85828601612bfb565b9150509250929050565b61310181612af2565b811461310c57600080fd5b50565b60008135905061311e816130f8565b92915050565b6000806040838503121561313b5761313a612a63565b5b600061314985828601612cb0565b925050602061315a8582860161310f565b9150509250929050565b600067ffffffffffffffff82111561317f5761317e612f31565b5b61318882612b6e565b9050602081019050919050565b60006131a86131a384613164565b612f91565b9050828152602081018484840111156131c4576131c3612f2c565b5b6131cf848285612fdd565b509392505050565b600082601f8301126131ec576131eb612f27565b5b81356131fc848260208601613195565b91505092915050565b6000806000806080858703121561321f5761321e612a63565b5b600061322d87828801612cb0565b945050602061323e87828801612cb0565b935050604061324f87828801612bfb565b925050606085013567ffffffffffffffff8111156132705761326f612a68565b5b61327c878288016131d7565b91505092959194509250565b6000806040838503121561329f5761329e612a63565b5b60006132ad85828601612cb0565b92505060206132be85828601612cb0565b9150509250929050565b7f4e487b7100000000000000000000000000000000000000000000000000000000600052602260045260246000fd5b6000600282049050600182168061330f57607f821691505b602082108103613322576133216132c8565b5b50919050565b7f4e487b7100000000000000000000000000000000000000000000000000000000600052601160045260246000fd5b600061336282612bda565b915061336d83612bda565b925082820390508181111561338557613384613328565b5b92915050565b600061339682612bda565b91506133a183612bda565b92508282019050808211156133b9576133b8613328565b5b92915050565b7f4e487b7100000000000000000000000000000000000000000000000000000000600052603260045260246000fd5b60006060820190506134036000830186612c6f565b6134106020830185612e7d565b61341d6040830184612c6f565b949350505050565b600061343082612bda565b91507fffffffffffffffffffffffffffffffffffffffffffffffffffffffffffffffff820361346257613461613328565b5b600182019050919050565b7f4f6e6c79206974656d206f776e65722063616e20706572666f726d207468697360008201527f206f7065726174696f6e00000000000000000000000000000000000000000000602082015250565b60006134c9602a83612b33565b91506134d48261346d565b604082019050919050565b600060208201905081810360008301526134f8816134bc565b9050919050565b7f5072696365206d75737420626520657175616c20746f206c697374207072696360008201527f6500000000000000000000000000000000000000000000000000000000000000602082015250565b600061355b602183612b33565b9150613566826134ff565b604082019050919050565b6000602082019050818103600083015261358a8161354e565b9050919050565b600061359c82612bda565b9150600082036135af576135ae613328565b5b600182039050919050565b7f4f6e6c79206f776e6572206f6620746865206d61726b6574706c61636520636160008201527f6e20706572666f726d207468697320616374696f6e0000000000000000000000602082015250565b6000613616603583612b33565b9150613621826135ba565b604082019050919050565b6000602082019050818103600083015261364581613609565b9050919050565b7f506c65617365207375626d6974207468652061736b696e67207072696365206960008201527f6e206f7264657220746f20636f6d706c65746520746865207075726368617365602082015250565b60006136a8604083612b33565b91506136b38261364c565b604082019050919050565b600060208201905081810360008301526136d78161369b565b9050919050565b600081905092915050565b60006136f482612b28565b6136fe81856136de565b935061370e818560208601612b44565b80840191505092915050565b600061372682856136e9565b915061373282846136e9565b91508190509392505050565b60008190508160005260206000209050919050565b60006020601f8301049050919050565b600082821b905092915050565b6000600883026137a07fffffffffffffffffffffffffffffffffffffffffffffffffffffffffffffffff82613763565b6137aa8683613763565b95508019841693508086168417925050509392505050565b6000819050919050565b60006137e76137e26137dd84612bda565b6137c2565b612bda565b9050919050565b6000819050919050565b613801836137cc565b61381561380d826137ee565b848454613770565b825550505050565b600090565b61382a61381d565b6138358184846137f8565b505050565b5b818110156138595761384e600082613822565b60018101905061383b565b5050565b601f82111561389e5761386f8161373e565b61387884613753565b81016020851015613887578190505b61389b61389385613753565b83018261383a565b50505b505050565b600082821c905092915050565b60006138c1600019846008026138a3565b1980831691505092915050565b60006138da83836138b0565b9150826002028217905092915050565b6138f382612b28565b67ffffffffffffffff81111561390c5761390b612f31565b5b61391682546132f7565b61392182828561385d565b600060209050601f8311600181146139545760008415613942578287015190505b61394c85826138ce565b8655506139b4565b601f1984166139628661373e565b60005b8281101561398a57848901518255600182019150602085019450602081019050613965565b868310156139a757848901516139a3601f8916826138b0565b8355505b6001600288020188555050505b505050505050565b7f5072696365206d7573742062652067726561746572207468616e203000000000600082015250565b60006139f2601c83612b33565b91506139fd826139bc565b602082019050919050565b60006020820190508181036000830152613a21816139e5565b9050919050565b7f5072696365206d75737420626520657175616c20746f206c697374696e67207060008201527f7269636500000000000000000000000000000000000000000000000000000000602082015250565b6000613a84602483612b33565b9150613a8f82613a28565b604082019050919050565b60006020820190508181036000830152613ab381613a77565b9050919050565b6000608082019050613acf6000830187612c6f565b613adc6020830186612c6f565b613ae96040830185612e7d565b613af66060830184612afe565b95945050505050565b600081519050919050565b600082825260208201905092915050565b6000613b2682613aff565b613b308185613b0a565b9350613b40818560208601612b44565b613b4981612b6e565b840191505092915050565b6000608082019050613b696000830187612c6f565b613b766020830186612c6f565b613b836040830185612e7d565b8181036060830152613b958184613b1b565b905095945050505050565b600081519050613baf81612a99565b92915050565b600060208284031215613bcb57613bca612a63565b5b6000613bd984828501613ba0565b91505092915050565b6000604082019050613bf76000830185612c6f565b613c046020830184612e7d565b9392505050565b7f4e487b7100000000000000000000000000000000000000000000000000000000600052601260045260246000fdfea2646970667358221220d161e73a6ab0a4fc9ba5c2432542f99de43a4a4177d39f443b9a292c89fd989964736f6c63430008180033",
  "linkReferences": {},
  "deployedLinkReferences": {}
}