{
  "_format": "hh-sol-artifact-1",
  "contractName": "NFTMarketplace",
  "sourceName": "contracts/NFTMarketplace.sol",
  "abi": [
    {
      "inputs": [],
      "stateMutability": "nonpayable",
      "type": "constructor"
    },
    {
      "inputs": [
        {
          "internalType": "address",
          "name": "sender",
          "type": "address"
        },
        {
          "internalType": "uint256",
          "name": "tokenId",
          "type": "uint256"
        },
        {
          "internalType": "address",
          "name": "owner",
          "type": "address"
        }
      ],
      "name": "ERC721IncorrectOwner",
      "type": "error"
    },
    {
      "inputs": [
        {
          "internalType": "address",
          "name": "operator",
          "type": "address"
        },
        {
          "internalType": "uint256",
          "name": "tokenId",
          "type": "uint256"
        }
      ],
      "name": "ERC721InsufficientApproval",
      "type": "error"
    },
    {
      "inputs": [
        {
          "internalType": "address",
          "name": "approver",
          "type": "address"
        }
      ],
      "name": "ERC721InvalidApprover",
      "type": "error"
    },
    {
      "inputs": [
        {
          "internalType": "address",
          "name": "operator",
          "type": "address"
        }
      ],
      "name": "ERC721InvalidOperator",
      "type": "error"
    },
    {
      "inputs": [
        {
          "internalType": "address",
          "name": "owner",
          "type": "address"
        }
      ],
      "name": "ERC721InvalidOwner",
      "type": "error"
    },
    {
      "inputs": [
        {
          "internalType": "address",
          "name": "receiver",
          "type": "address"
        }
      ],
      "name": "ERC721InvalidReceiver",
      "type": "error"
    },
    {
      "inputs": [
        {
          "internalType": "address",
          "name": "sender",
          "type": "address"
        }
      ],
      "name": "ERC721InvalidSender",
      "type": "error"
    },
    {
      "inputs": [
        {
          "internalType": "uint256",
          "name": "tokenId",
          "type": "uint256"
        }
      ],
      "name": "ERC721NonexistentToken",
      "type": "error"
    },
    {
      "anonymous": false,
      "inputs": [
        {
          "indexed": true,
          "internalType": "address",
          "name": "owner",
          "type": "address"
        },
        {
          "indexed": true,
          "internalType": "address",
          "name": "approved",
          "type": "address"
        },
        {
          "indexed": true,
          "internalType": "uint256",
          "name": "tokenId",
          "type": "uint256"
        }
      ],
      "name": "Approval",
      "type": "event"
    },
    {
      "anonymous": false,
      "inputs": [
        {
          "indexed": true,
          "internalType": "address",
          "name": "owner",
          "type": "address"
        },
        {
          "indexed": true,
          "internalType": "address",
          "name": "operator",
          "type": "address"
        },
        {
          "indexed": false,
          "internalType": "bool",
          "name": "approved",
          "type": "bool"
        }
      ],
      "name": "ApprovalForAll",
      "type": "event"
    },
    {
      "anonymous": false,
      "inputs": [
        {
          "indexed": false,
          "internalType": "uint256",
          "name": "_fromTokenId",
          "type": "uint256"
        },
        {
          "indexed": false,
          "internalType": "uint256",
          "name": "_toTokenId",
          "type": "uint256"
        }
      ],
      "name": "BatchMetadataUpdate",
      "type": "event"
    },
    {
      "anonymous": false,
      "inputs": [
        {
          "indexed": false,
          "internalType": "uint256",
          "name": "_tokenId",
          "type": "uint256"
        }
      ],
      "name": "MetadataUpdate",
      "type": "event"
    },
    {
      "anonymous": false,
      "inputs": [
        {
          "indexed": true,
          "internalType": "address",
          "name": "from",
          "type": "address"
        },
        {
          "indexed": true,
          "internalType": "address",
          "name": "to",
          "type": "address"
        },
        {
          "indexed": true,
          "internalType": "uint256",
          "name": "tokenId",
          "type": "uint256"
        }
      ],
      "name": "Transfer",
      "type": "event"
    },
    {
      "anonymous": false,
      "inputs": [
        {
          "indexed": false,
          "internalType": "uint256",
          "name": "tokenId",
          "type": "uint256"
        },
        {
          "indexed": false,
          "internalType": "address",
          "name": "seller",
          "type": "address"
        },
        {
          "indexed": false,
          "internalType": "address",
          "name": "owner",
          "type": "address"
        },
        {
          "indexed": false,
          "internalType": "uint256",
          "name": "price",
          "type": "uint256"
        },
        {
          "indexed": false,
          "internalType": "bool",
          "name": "sold",
          "type": "bool"
        }
      ],
      "name": "idMarketItemCreated",
      "type": "event"
    },
    {
      "inputs": [
        {
          "internalType": "address",
          "name": "to",
          "type": "address"
        },
        {
          "internalType": "uint256",
          "name": "tokenId",
          "type": "uint256"
        }
      ],
      "name": "approve",
      "outputs": [],
      "stateMutability": "nonpayable",
      "type": "function"
    },
    {
      "inputs": [
        {
          "internalType": "address",
          "name": "owner",
          "type": "address"
        }
      ],
      "name": "balanceOf",
      "outputs": [
        {
          "internalType": "uint256",
          "name": "",
          "type": "uint256"
        }
      ],
      "stateMutability": "view",
      "type": "function"
    },
    {
      "inputs": [
        {
          "internalType": "uint256",
          "name": "_tokenId",
          "type": "uint256"
        }
      ],
      "name": "createMarketSale",
      "outputs": [],
      "stateMutability": "payable",
      "type": "function"
    },
    {
      "inputs": [
        {
          "internalType": "string",
          "name": "_tokenURI",
          "type": "string"
        },
        {
          "internalType": "uint256",
          "name": "_price",
          "type": "uint256"
        }
      ],
      "name": "createToken",
      "outputs": [
        {
          "internalType": "uint256",
          "name": "",
          "type": "uint256"
        }
      ],
      "stateMutability": "payable",
      "type": "function"
    },
    {
      "inputs": [],
      "name": "fetchItemsListed",
      "outputs": [
        {
          "components": [
            {
              "internalType": "uint256",
              "name": "tokenId",
              "type": "uint256"
            },
            {
              "internalType": "address payable",
              "name": "seller",
              "type": "address"
            },
            {
              "internalType": "address payable",
              "name": "owner",
              "type": "address"
            },
            {
              "internalType": "uint256",
              "name": "price",
              "type": "uint256"
            },
            {
              "internalType": "bool",
              "name": "sold",
              "type": "bool"
            }
          ],
          "internalType": "struct NFTMarketplace.MarketItem[]",
          "name": "",
          "type": "tuple[]"
        }
      ],
      "stateMutability": "view",
      "type": "function"
    },
    {
      "inputs": [],
      "name": "fetchMarketItem",
      "outputs": [
        {
          "components": [
            {
              "internalType": "uint256",
              "name": "tokenId",
              "type": "uint256"
            },
            {
              "internalType": "address payable",
              "name": "seller",
              "type": "address"
            },
            {
              "internalType": "address payable",
              "name": "owner",
              "type": "address"
            },
            {
              "internalType": "uint256",
              "name": "price",
              "type": "uint256"
            },
            {
              "internalType": "bool",
              "name": "sold",
              "type": "bool"
            }
          ],
          "internalType": "struct NFTMarketplace.MarketItem[]",
          "name": "",
          "type": "tuple[]"
        }
      ],
      "stateMutability": "view",
      "type": "function"
    },
    {
      "inputs": [],
      "name": "fetchMyNFT",
      "outputs": [
        {
          "components": [
            {
              "internalType": "uint256",
              "name": "tokenId",
              "type": "uint256"
            },
            {
              "internalType": "address payable",
              "name": "seller",
              "type": "address"
            },
            {
              "internalType": "address payable",
              "name": "owner",
              "type": "address"
            },
            {
              "internalType": "uint256",
              "name": "price",
              "type": "uint256"
            },
            {
              "internalType": "bool",
              "name": "sold",
              "type": "bool"
            }
          ],
          "internalType": "struct NFTMarketplace.MarketItem[]",
          "name": "",
          "type": "tuple[]"
        }
      ],
      "stateMutability": "view",
      "type": "function"
    },
    {
      "inputs": [
        {
          "internalType": "uint256",
          "name": "tokenId",
          "type": "uint256"
        }
      ],
      "name": "getApproved",
      "outputs": [
        {
          "internalType": "address",
          "name": "",
          "type": "address"
        }
      ],
      "stateMutability": "view",
      "type": "function"
    },
    {
      "inputs": [],
      "name": "getListingPrice",
      "outputs": [
        {
          "internalType": "uint256",
          "name": "",
          "type": "uint256"
        }
      ],
      "stateMutability": "view",
      "type": "function"
    },
    {
      "inputs": [
        {
          "internalType": "address",
          "name": "owner",
          "type": "address"
        },
        {
          "internalType": "address",
          "name": "operator",
          "type": "address"
        }
      ],
      "name": "isApprovedForAll",
      "outputs": [
        {
          "internalType": "bool",
          "name": "",
          "type": "bool"
        }
      ],
      "stateMutability": "view",
      "type": "function"
    },
    {
      "inputs": [],
      "name": "name",
      "outputs": [
        {
          "internalType": "string",
          "name": "",
          "type": "string"
        }
      ],
      "stateMutability": "view",
      "type": "function"
    },
    {
      "inputs": [
        {
          "internalType": "uint256",
          "name": "tokenId",
          "type": "uint256"
        }
      ],
      "name": "ownerOf",
      "outputs": [
        {
          "internalType": "address",
          "name": "",
          "type": "address"
        }
      ],
      "stateMutability": "view",
      "type": "function"
    },
    {
      "inputs": [
        {
          "internalType": "uint256",
          "name": "_tokenId",
          "type": "uint256"
        },
        {
          "internalType": "uint256",
          "name": "_price",
          "type": "uint256"
        }
      ],
      "name": "reSellToken",
      "outputs": [],
      "stateMutability": "payable",
      "type": "function"
    },
    {
      "inputs": [
        {
          "internalType": "address",
          "name": "from",
          "type": "address"
        },
        {
          "internalType": "address",
          "name": "to",
          "type": "address"
        },
        {
          "internalType": "uint256",
          "name": "tokenId",
          "type": "uint256"
        }
      ],
      "name": "safeTransferFrom",
      "outputs": [],
      "stateMutability": "nonpayable",
      "type": "function"
    },
    {
      "inputs": [
        {
          "internalType": "address",
          "name": "from",
          "type": "address"
        },
        {
          "internalType": "address",
          "name": "to",
          "type": "address"
        },
        {
          "internalType": "uint256",
          "name": "tokenId",
          "type": "uint256"
        },
        {
          "internalType": "bytes",
          "name": "data",
          "type": "bytes"
        }
      ],
      "name": "safeTransferFrom",
      "outputs": [],
      "stateMutability": "nonpayable",
      "type": "function"
    },
    {
      "inputs": [
        {
          "internalType": "address",
          "name": "operator",
          "type": "address"
        },
        {
          "internalType": "bool",
          "name": "approved",
          "type": "bool"
        }
      ],
      "name": "setApprovalForAll",
      "outputs": [],
      "stateMutability": "nonpayable",
      "type": "function"
    },
    {
      "inputs": [
        {
          "internalType": "bytes4",
          "name": "interfaceId",
          "type": "bytes4"
        }
      ],
      "name": "supportsInterface",
      "outputs": [
        {
          "internalType": "bool",
          "name": "",
          "type": "bool"
        }
      ],
      "stateMutability": "view",
      "type": "function"
    },
    {
      "inputs": [],
      "name": "symbol",
      "outputs": [
        {
          "internalType": "string",
          "name": "",
          "type": "string"
        }
      ],
      "stateMutability": "view",
      "type": "function"
    },
    {
      "inputs": [
        {
          "internalType": "uint256",
          "name": "tokenId",
          "type": "uint256"
        }
      ],
      "name": "tokenURI",
      "outputs": [
        {
          "internalType": "string",
          "name": "",
          "type": "string"
        }
      ],
      "stateMutability": "view",
      "type": "function"
    },
    {
      "inputs": [
        {
          "internalType": "address",
          "name": "from",
          "type": "address"
        },
        {
          "internalType": "address",
          "name": "to",
          "type": "address"
        },
        {
          "internalType": "uint256",
          "name": "tokenId",
          "type": "uint256"
        }
      ],
      "name": "transferFrom",
      "outputs": [],
      "stateMutability": "nonpayable",
      "type": "function"
    },
    {
      "inputs": [
        {
          "internalType": "uint256",
          "name": "_listingPrice",
          "type": "uint256"
        }
      ],
      "name": "updateListingPrice",
      "outputs": [],
      "stateMutability": "payable",
      "type": "function"
    }
  ],
  "bytecode": "0x60806040526605543df729c000600a553480156200001c57600080fd5b506040518060400160405280601081526020017f546563587261204e465420546f6b656e000000000000000000000000000000008152506040518060400160405280600481526020017f54584e540000000000000000000000000000000000000000000000000000000081525081600090816200009a919062000370565b508060019081620000ac919062000370565b50505033600960006101000a81548173ffffffffffffffffffffffffffffffffffffffff021916908373ffffffffffffffffffffffffffffffffffffffff16021790555062000457565b600081519050919050565b7f4e487b7100000000000000000000000000000000000000000000000000000000600052604160045260246000fd5b7f4e487b7100000000000000000000000000000000000000000000000000000000600052602260045260246000fd5b600060028204905060018216806200017857607f821691505b6020821081036200018e576200018d62000130565b5b50919050565b60008190508160005260206000209050919050565b60006020601f8301049050919050565b600082821b905092915050565b600060088302620001f87fffffffffffffffffffffffffffffffffffffffffffffffffffffffffffffffff82620001b9565b620002048683620001b9565b95508019841693508086168417925050509392505050565b6000819050919050565b6000819050919050565b6000620002516200024b62000245846200021c565b62000226565b6200021c565b9050919050565b6000819050919050565b6200026d8362000230565b620002856200027c8262000258565b848454620001c6565b825550505050565b600090565b6200029c6200028d565b620002a981848462000262565b505050565b5b81811015620002d157620002c560008262000292565b600181019050620002af565b5050565b601f8211156200032057620002ea8162000194565b620002f584620001a9565b8101602085101562000305578190505b6200031d6200031485620001a9565b830182620002ae565b50505b505050565b600082821c905092915050565b6000620003456000198460080262000325565b1980831691505092915050565b600062000360838362000332565b9150826002028217905092915050565b6200037b82620000f6565b67ffffffffffffffff81111562000397576200039662000101565b5b620003a382546200015f565b620003b0828285620002d5565b600060209050601f831160018114620003e85760008415620003d3578287015190505b620003df858262000352565b8655506200044f565b601f198416620003f88662000194565b60005b828110156200042257848901518255600182019150602085019450602081019050620003fb565b868310156200044257848901516200043e601f89168262000332565b8355505b6001600288020188555050505b505050505050565b613a9380620004676000396000f3fe60806040526004361061012a5760003560e01c806372b3b620116100ab578063ae677aa31161006f578063ae677aa3146103ea578063b88d4fde14610406578063be9af5361461042f578063c18763f71461044b578063c87b56dd14610476578063e985e9c5146104b35761012a565b806372b3b6201461031f57806385535b251461034f5780638fafd0211461036b57806395d89b4114610396578063a22cb465146103c15761012a565b806323b872dd116100f257806323b872dd1461022857806342842e0e1461025157806345f8fa801461027a5780636352211e146102a557806370a08231146102e25761012a565b806301ffc9a71461012f57806306fdde031461016c578063081812fc14610197578063095ea7b3146101d457806312e85585146101fd575b600080fd5b34801561013b57600080fd5b50610156600480360381019061015191906128da565b6104f0565b6040516101639190612922565b60405180910390f35b34801561017857600080fd5b50610181610551565b60405161018e91906129cd565b60405180910390f35b3480156101a357600080fd5b506101be60048036038101906101b99190612a25565b6105e3565b6040516101cb9190612a93565b60405180910390f35b3480156101e057600080fd5b506101fb60048036038101906101f69190612ada565b6105ff565b005b34801561020957600080fd5b50610212610615565b60405161021f9190612b29565b60405180910390f35b34801561023457600080fd5b5061024f600480360381019061024a9190612b44565b61061f565b005b34801561025d57600080fd5b5061027860048036038101906102739190612b44565b610721565b005b34801561028657600080fd5b5061028f610741565b60405161029c9190612ced565b60405180910390f35b3480156102b157600080fd5b506102cc60048036038101906102c79190612a25565b610924565b6040516102d99190612a93565b60405180910390f35b3480156102ee57600080fd5b5061030960048036038101906103049190612d0f565b610936565b6040516103169190612b29565b60405180910390f35b61033960048036038101906103349190612e71565b6109f0565b6040516103469190612b29565b60405180910390f35b61036960048036038101906103649190612ecd565b610a39565b005b34801561037757600080fd5b50610380610c3c565b60405161038d9190612ced565b60405180910390f35b3480156103a257600080fd5b506103ab610e89565b6040516103b891906129cd565b60405180910390f35b3480156103cd57600080fd5b506103e860048036038101906103e39190612f39565b610f1b565b005b61040460048036038101906103ff9190612a25565b610f31565b005b34801561041257600080fd5b5061042d6004803603810190610428919061301a565b610fcb565b005b61044960048036038101906104449190612a25565b610fe8565b005b34801561045757600080fd5b5061046061122e565b60405161046d9190612ced565b60405180910390f35b34801561048257600080fd5b5061049d60048036038101906104989190612a25565b611411565b6040516104aa91906129cd565b60405180910390f35b3480156104bf57600080fd5b506104da60048036038101906104d5919061309d565b611524565b6040516104e79190612922565b60405180910390f35b6000634906490660e01b7bffffffffffffffffffffffffffffffffffffffffffffffffffffffff1916827bffffffffffffffffffffffffffffffffffffffffffffffffffffffff1916148061054a5750610549826115b8565b5b9050919050565b6060600080546105609061310c565b80601f016020809104026020016040519081016040528092919081815260200182805461058c9061310c565b80156105d95780601f106105ae576101008083540402835291602001916105d9565b820191906000526020600020905b8154815290600101906020018083116105bc57829003601f168201915b5050505050905090565b60006105ee8261169a565b506105f882611722565b9050919050565b610611828261060c61175f565b611767565b5050565b6000600a54905090565b600073ffffffffffffffffffffffffffffffffffffffff168273ffffffffffffffffffffffffffffffffffffffff16036106915760006040517f64a0ae920000000000000000000000000000000000000000000000000000000081526004016106889190612a93565b60405180910390fd5b60006106a583836106a061175f565b611779565b90508373ffffffffffffffffffffffffffffffffffffffff168173ffffffffffffffffffffffffffffffffffffffff161461071b578382826040517f64283d7b0000000000000000000000000000000000000000000000000000000081526004016107129392919061313d565b60405180910390fd5b50505050565b61073c83838360405180602001604052806000815250610fcb565b505050565b6060600060075490506000606060005b8381101561091a573373ffffffffffffffffffffffffffffffffffffffff16600b600060018461078191906131a3565b815260200190815260200160002060010160009054906101000a900473ffffffffffffffffffffffffffffffffffffffff1673ffffffffffffffffffffffffffffffffffffffff160361090d5760006001826107dd91906131a3565b90506000600b60008381526020019081526020016000209050806040518060a0016040529081600082015481526020016001820160009054906101000a900473ffffffffffffffffffffffffffffffffffffffff1673ffffffffffffffffffffffffffffffffffffffff1673ffffffffffffffffffffffffffffffffffffffff1681526020016002820160009054906101000a900473ffffffffffffffffffffffffffffffffffffffff1673ffffffffffffffffffffffffffffffffffffffff1673ffffffffffffffffffffffffffffffffffffffff168152602001600382015481526020016004820160009054906101000a900460ff1615151515815250508486815181106108f0576108ef6131d7565b5b602002602001018190525060018561090891906131a3565b945050505b8080600101915050610751565b5080935050505090565b600061092f8261169a565b9050919050565b60008073ffffffffffffffffffffffffffffffffffffffff168273ffffffffffffffffffffffffffffffffffffffff16036109a95760006040517f89c62b640000000000000000000000000000000000000000000000000000000081526004016109a09190612a93565b60405180910390fd5b600360008373ffffffffffffffffffffffffffffffffffffffff1673ffffffffffffffffffffffffffffffffffffffff168152602001908152602001600020549050919050565b600060076000815480929190610a0590613206565b919050555060006007549050610a1b3382611993565b610a258185611a8c565b610a2f8184611ae8565b8091505092915050565b3373ffffffffffffffffffffffffffffffffffffffff16600b600084815260200190815260200160002060020160009054906101000a900473ffffffffffffffffffffffffffffffffffffffff1673ffffffffffffffffffffffffffffffffffffffff1614610add576040517f08c379a0000000000000000000000000000000000000000000000000000000008152600401610ad4906132c0565b60405180910390fd5b600a543414610b21576040517f08c379a0000000000000000000000000000000000000000000000000000000008152600401610b1890613352565b60405180910390fd5b6000600b600084815260200190815260200160002060040160006101000a81548160ff02191690831515021790555080600b60008481526020019081526020016000206003018190555033600b600084815260200190815260200160002060010160006101000a81548173ffffffffffffffffffffffffffffffffffffffff021916908373ffffffffffffffffffffffffffffffffffffffff16021790555030600b600084815260200190815260200160002060020160006101000a81548173ffffffffffffffffffffffffffffffffffffffff021916908373ffffffffffffffffffffffffffffffffffffffff16021790555060086000815480929190610c2890613372565b9190505550610c38333084611cec565b5050565b6060600060075490506000600854600754610c57919061339b565b90506000808267ffffffffffffffff811115610c7657610c75612d46565b5b604051908082528060200260200182016040528015610caf57816020015b610c9c612811565b815260200190600190039081610c945790505b50905060005b84811015610e7e573073ffffffffffffffffffffffffffffffffffffffff16600b6000600184610ce591906131a3565b815260200190815260200160002060020160009054906101000a900473ffffffffffffffffffffffffffffffffffffffff1673ffffffffffffffffffffffffffffffffffffffff1603610e71576000600182610d4191906131a3565b90506000600b60008381526020019081526020016000209050806040518060a0016040529081600082015481526020016001820160009054906101000a900473ffffffffffffffffffffffffffffffffffffffff1673ffffffffffffffffffffffffffffffffffffffff1673ffffffffffffffffffffffffffffffffffffffff1681526020016002820160009054906101000a900473ffffffffffffffffffffffffffffffffffffffff1673ffffffffffffffffffffffffffffffffffffffff1673ffffffffffffffffffffffffffffffffffffffff168152602001600382015481526020016004820160009054906101000a900460ff161515151581525050848681518110610e5457610e536131d7565b5b6020026020010181905250600185610e6c91906131a3565b945050505b8080600101915050610cb5565b508094505050505090565b606060018054610e989061310c565b80601f0160208091040260200160405190810160405280929190818152602001828054610ec49061310c565b8015610f115780601f10610ee657610100808354040283529160200191610f11565b820191906000526020600020905b815481529060010190602001808311610ef457829003601f168201915b5050505050905090565b610f2d610f2661175f565b8383611e59565b5050565b600960009054906101000a900473ffffffffffffffffffffffffffffffffffffffff1673ffffffffffffffffffffffffffffffffffffffff163373ffffffffffffffffffffffffffffffffffffffff1614610fc1576040517f08c379a0000000000000000000000000000000000000000000000000000000008152600401610fb890613441565b60405180910390fd5b80600a8190555050565b610fd684848461061f565b610fe284848484611fc8565b50505050565b6000600b6000838152602001908152602001600020600301549050803414611045576040517f08c379a000000000000000000000000000000000000000000000000000000000815260040161103c906134d3565b60405180910390fd5b33600b600084815260200190815260200160002060020160006101000a81548173ffffffffffffffffffffffffffffffffffffffff021916908373ffffffffffffffffffffffffffffffffffffffff1602179055506001600b600084815260200190815260200160002060040160006101000a81548160ff0219169083151502179055506000600b600084815260200190815260200160002060020160006101000a81548173ffffffffffffffffffffffffffffffffffffffff021916908373ffffffffffffffffffffffffffffffffffffffff1602179055506008600081548092919061113290613206565b9190505550611142303384611cec565b600960009054906101000a900473ffffffffffffffffffffffffffffffffffffffff1673ffffffffffffffffffffffffffffffffffffffff166108fc600a549081150290604051600060405180830381858888f193505050501580156111ac573d6000803e3d6000fd5b50600b600083815260200190815260200160002060010160009054906101000a900473ffffffffffffffffffffffffffffffffffffffff1673ffffffffffffffffffffffffffffffffffffffff166108fc349081150290604051600060405180830381858888f19350505050158015611229573d6000803e3d6000fd5b505050565b6060600060075490506000606060005b83811015611407573373ffffffffffffffffffffffffffffffffffffffff16600b600060018461126e91906131a3565b815260200190815260200160002060020160009054906101000a900473ffffffffffffffffffffffffffffffffffffffff1673ffffffffffffffffffffffffffffffffffffffff16036113fa5760006001826112ca91906131a3565b90506000600b60008381526020019081526020016000209050806040518060a0016040529081600082015481526020016001820160009054906101000a900473ffffffffffffffffffffffffffffffffffffffff1673ffffffffffffffffffffffffffffffffffffffff1673ffffffffffffffffffffffffffffffffffffffff1681526020016002820160009054906101000a900473ffffffffffffffffffffffffffffffffffffffff1673ffffffffffffffffffffffffffffffffffffffff1673ffffffffffffffffffffffffffffffffffffffff168152602001600382015481526020016004820160009054906101000a900460ff1615151515815250508486815181106113dd576113dc6131d7565b5b60200260200101819052506001856113f591906131a3565b945050505b808060010191505061123e565b5080935050505090565b606061141c8261169a565b50600060066000848152602001908152602001600020805461143d9061310c565b80601f01602080910402602001604051908101604052809291908181526020018280546114699061310c565b80156114b65780601f1061148b576101008083540402835291602001916114b6565b820191906000526020600020905b81548152906001019060200180831161149957829003601f168201915b5050505050905060006114c761217f565b905060008151036114dc57819250505061151f565b6000825111156115115780826040516020016114f992919061352f565b6040516020818303038152906040529250505061151f565b61151a84612196565b925050505b919050565b6000600560008473ffffffffffffffffffffffffffffffffffffffff1673ffffffffffffffffffffffffffffffffffffffff16815260200190815260200160002060008373ffffffffffffffffffffffffffffffffffffffff1673ffffffffffffffffffffffffffffffffffffffff16815260200190815260200160002060009054906101000a900460ff16905092915050565b60007f80ac58cd000000000000000000000000000000000000000000000000000000007bffffffffffffffffffffffffffffffffffffffffffffffffffffffff1916827bffffffffffffffffffffffffffffffffffffffffffffffffffffffff1916148061168357507f5b5e139f000000000000000000000000000000000000000000000000000000007bffffffffffffffffffffffffffffffffffffffffffffffffffffffff1916827bffffffffffffffffffffffffffffffffffffffffffffffffffffffff1916145b806116935750611692826121ff565b5b9050919050565b6000806116a683612269565b9050600073ffffffffffffffffffffffffffffffffffffffff168173ffffffffffffffffffffffffffffffffffffffff160361171957826040517f7e2732890000000000000000000000000000000000000000000000000000000081526004016117109190612b29565b60405180910390fd5b80915050919050565b60006004600083815260200190815260200160002060009054906101000a900473ffffffffffffffffffffffffffffffffffffffff169050919050565b600033905090565b61177483838360016122a6565b505050565b60008061178584612269565b9050600073ffffffffffffffffffffffffffffffffffffffff168373ffffffffffffffffffffffffffffffffffffffff16146117c7576117c681848661246b565b5b600073ffffffffffffffffffffffffffffffffffffffff168173ffffffffffffffffffffffffffffffffffffffff1614611858576118096000856000806122a6565b6001600360008373ffffffffffffffffffffffffffffffffffffffff1673ffffffffffffffffffffffffffffffffffffffff168152602001908152602001600020600082825403925050819055505b600073ffffffffffffffffffffffffffffffffffffffff168573ffffffffffffffffffffffffffffffffffffffff16146118db576001600360008773ffffffffffffffffffffffffffffffffffffffff1673ffffffffffffffffffffffffffffffffffffffff168152602001908152602001600020600082825401925050819055505b846002600086815260200190815260200160002060006101000a81548173ffffffffffffffffffffffffffffffffffffffff021916908373ffffffffffffffffffffffffffffffffffffffff160217905550838573ffffffffffffffffffffffffffffffffffffffff168273ffffffffffffffffffffffffffffffffffffffff167fddf252ad1be2c89b69c2b068fc378daa952ba7f163c4a11628f55a4df523b3ef60405160405180910390a4809150509392505050565b600073ffffffffffffffffffffffffffffffffffffffff168273ffffffffffffffffffffffffffffffffffffffff1603611a055760006040517f64a0ae920000000000000000000000000000000000000000000000000000000081526004016119fc9190612a93565b60405180910390fd5b6000611a1383836000611779565b9050600073ffffffffffffffffffffffffffffffffffffffff168173ffffffffffffffffffffffffffffffffffffffff1614611a875760006040517f73c6ac6e000000000000000000000000000000000000000000000000000000008152600401611a7e9190612a93565b60405180910390fd5b505050565b80600660008481526020019081526020016000209081611aac91906136ff565b507ff8e1a15aba9398e019f0b49df1a4fde98ee17ae345cb5f6b5e2c27f5033e8ce782604051611adc9190612b29565b60405180910390a15050565b60008111611b2b576040517f08c379a0000000000000000000000000000000000000000000000000000000008152600401611b229061381d565b60405180910390fd5b600a543414611b6f576040517f08c379a0000000000000000000000000000000000000000000000000000000008152600401611b66906138af565b60405180910390fd5b6040518060a001604052808381526020013373ffffffffffffffffffffffffffffffffffffffff1681526020013073ffffffffffffffffffffffffffffffffffffffff16815260200182815260200160001515815250600b60008481526020019081526020016000206000820151816000015560208201518160010160006101000a81548173ffffffffffffffffffffffffffffffffffffffff021916908373ffffffffffffffffffffffffffffffffffffffff16021790555060408201518160020160006101000a81548173ffffffffffffffffffffffffffffffffffffffff021916908373ffffffffffffffffffffffffffffffffffffffff1602179055506060820151816003015560808201518160040160006101000a81548160ff021916908315150217905550905050611ca8333084611cec565b7fdebdb32cb5230ab727c9c361b16fdb2015df225c10e6a3e7f60ecd5dc5be4516823330846000604051611ce09594939291906138cf565b60405180910390a15050565b600073ffffffffffffffffffffffffffffffffffffffff168273ffffffffffffffffffffffffffffffffffffffff1603611d5e5760006040517f64a0ae92000000000000000000000000000000000000000000000000000000008152600401611d559190612a93565b60405180910390fd5b6000611d6c83836000611779565b9050600073ffffffffffffffffffffffffffffffffffffffff168173ffffffffffffffffffffffffffffffffffffffff1603611ddf57816040517f7e273289000000000000000000000000000000000000000000000000000000008152600401611dd69190612b29565b60405180910390fd5b8373ffffffffffffffffffffffffffffffffffffffff168173ffffffffffffffffffffffffffffffffffffffff1614611e53578382826040517f64283d7b000000000000000000000000000000000000000000000000000000008152600401611e4a9392919061313d565b60405180910390fd5b50505050565b600073ffffffffffffffffffffffffffffffffffffffff168273ffffffffffffffffffffffffffffffffffffffff1603611eca57816040517f5b08ba18000000000000000000000000000000000000000000000000000000008152600401611ec19190612a93565b60405180910390fd5b80600560008573ffffffffffffffffffffffffffffffffffffffff1673ffffffffffffffffffffffffffffffffffffffff16815260200190815260200160002060008473ffffffffffffffffffffffffffffffffffffffff1673ffffffffffffffffffffffffffffffffffffffff16815260200190815260200160002060006101000a81548160ff0219169083151502179055508173ffffffffffffffffffffffffffffffffffffffff168373ffffffffffffffffffffffffffffffffffffffff167f17307eab39ab6107e8899845ad3d59bd9653f200f220920489ca2b5937696c3183604051611fbb9190612922565b60405180910390a3505050565b60008373ffffffffffffffffffffffffffffffffffffffff163b1115612179578273ffffffffffffffffffffffffffffffffffffffff1663150b7a0261200c61175f565b8685856040518563ffffffff1660e01b815260040161202e9493929190613977565b6020604051808303816000875af192505050801561206a57506040513d601f19601f8201168201806040525081019061206791906139d8565b60015b6120ee573d806000811461209a576040519150601f19603f3d011682016040523d82523d6000602084013e61209f565b606091505b5060008151036120e657836040517f64a0ae920000000000000000000000000000000000000000000000000000000081526004016120dd9190612a93565b60405180910390fd5b805181602001fd5b63150b7a0260e01b7bffffffffffffffffffffffffffffffffffffffffffffffffffffffff1916817bffffffffffffffffffffffffffffffffffffffffffffffffffffffff19161461217757836040517f64a0ae9200000000000000000000000000000000000000000000000000000000815260040161216e9190612a93565b60405180910390fd5b505b50505050565b606060405180602001604052806000815250905090565b60606121a18261169a565b5060006121ac61217f565b905060008151116121cc57604051806020016040528060008152506121f7565b806121d68461252f565b6040516020016121e792919061352f565b6040516020818303038152906040525b915050919050565b60007f01ffc9a7000000000000000000000000000000000000000000000000000000007bffffffffffffffffffffffffffffffffffffffffffffffffffffffff1916827bffffffffffffffffffffffffffffffffffffffffffffffffffffffff1916149050919050565b60006002600083815260200190815260200160002060009054906101000a900473ffffffffffffffffffffffffffffffffffffffff169050919050565b80806122df5750600073ffffffffffffffffffffffffffffffffffffffff168273ffffffffffffffffffffffffffffffffffffffff1614155b156124135760006122ef8461169a565b9050600073ffffffffffffffffffffffffffffffffffffffff168373ffffffffffffffffffffffffffffffffffffffff161415801561235a57508273ffffffffffffffffffffffffffffffffffffffff168173ffffffffffffffffffffffffffffffffffffffff1614155b801561236d575061236b8184611524565b155b156123af57826040517fa9fbf51f0000000000000000000000000000000000000000000000000000000081526004016123a69190612a93565b60405180910390fd5b811561241157838573ffffffffffffffffffffffffffffffffffffffff168273ffffffffffffffffffffffffffffffffffffffff167f8c5be1e5ebec7d5bd14f71427d1e84f3dd0314c0f7b2291e5b200ac8c7c3b92560405160405180910390a45b505b836004600085815260200190815260200160002060006101000a81548173ffffffffffffffffffffffffffffffffffffffff021916908373ffffffffffffffffffffffffffffffffffffffff16021790555050505050565b6124768383836125fd565b61252a57600073ffffffffffffffffffffffffffffffffffffffff168373ffffffffffffffffffffffffffffffffffffffff16036124eb57806040517f7e2732890000000000000000000000000000000000000000000000000000000081526004016124e29190612b29565b60405180910390fd5b81816040517f177e802f000000000000000000000000000000000000000000000000000000008152600401612521929190613a05565b60405180910390fd5b505050565b60606000600161253e846126be565b01905060008167ffffffffffffffff81111561255d5761255c612d46565b5b6040519080825280601f01601f19166020018201604052801561258f5781602001600182028036833780820191505090505b509050600082602001820190505b6001156125f2578080600190039150507f3031323334353637383961626364656600000000000000000000000000000000600a86061a8153600a85816125e6576125e5613a2e565b5b0494506000850361259d575b819350505050919050565b60008073ffffffffffffffffffffffffffffffffffffffff168373ffffffffffffffffffffffffffffffffffffffff16141580156126b557508273ffffffffffffffffffffffffffffffffffffffff168473ffffffffffffffffffffffffffffffffffffffff16148061267657506126758484611524565b5b806126b457508273ffffffffffffffffffffffffffffffffffffffff1661269c83611722565b73ffffffffffffffffffffffffffffffffffffffff16145b5b90509392505050565b600080600090507a184f03e93ff9f4daa797ed6e38ed64bf6a1f010000000000000000831061271c577a184f03e93ff9f4daa797ed6e38ed64bf6a1f010000000000000000838161271257612711613a2e565b5b0492506040810190505b6d04ee2d6d415b85acef81000000008310612759576d04ee2d6d415b85acef8100000000838161274f5761274e613a2e565b5b0492506020810190505b662386f26fc10000831061278857662386f26fc10000838161277e5761277d613a2e565b5b0492506010810190505b6305f5e10083106127b1576305f5e10083816127a7576127a6613a2e565b5b0492506008810190505b61271083106127d65761271083816127cc576127cb613a2e565b5b0492506004810190505b606483106127f957606483816127ef576127ee613a2e565b5b0492506002810190505b600a8310612808576001810190505b80915050919050565b6040518060a0016040528060008152602001600073ffffffffffffffffffffffffffffffffffffffff168152602001600073ffffffffffffffffffffffffffffffffffffffff168152602001600081526020016000151581525090565b6000604051905090565b600080fd5b600080fd5b60007fffffffff0000000000000000000000000000000000000000000000000000000082169050919050565b6128b781612882565b81146128c257600080fd5b50565b6000813590506128d4816128ae565b92915050565b6000602082840312156128f0576128ef612878565b5b60006128fe848285016128c5565b91505092915050565b60008115159050919050565b61291c81612907565b82525050565b60006020820190506129376000830184612913565b92915050565b600081519050919050565b600082825260208201905092915050565b60005b8381101561297757808201518184015260208101905061295c565b60008484015250505050565b6000601f19601f8301169050919050565b600061299f8261293d565b6129a98185612948565b93506129b9818560208601612959565b6129c281612983565b840191505092915050565b600060208201905081810360008301526129e78184612994565b905092915050565b6000819050919050565b612a02816129ef565b8114612a0d57600080fd5b50565b600081359050612a1f816129f9565b92915050565b600060208284031215612a3b57612a3a612878565b5b6000612a4984828501612a10565b91505092915050565b600073ffffffffffffffffffffffffffffffffffffffff82169050919050565b6000612a7d82612a52565b9050919050565b612a8d81612a72565b82525050565b6000602082019050612aa86000830184612a84565b92915050565b612ab781612a72565b8114612ac257600080fd5b50565b600081359050612ad481612aae565b92915050565b60008060408385031215612af157612af0612878565b5b6000612aff85828601612ac5565b9250506020612b1085828601612a10565b9150509250929050565b612b23816129ef565b82525050565b6000602082019050612b3e6000830184612b1a565b92915050565b600080600060608486031215612b5d57612b5c612878565b5b6000612b6b86828701612ac5565b9350506020612b7c86828701612ac5565b9250506040612b8d86828701612a10565b9150509250925092565b600081519050919050565b600082825260208201905092915050565b6000819050602082019050919050565b612bcc816129ef565b82525050565b6000612bdd82612a52565b9050919050565b612bed81612bd2565b82525050565b612bfc81612907565b82525050565b60a082016000820151612c186000850182612bc3565b506020820151612c2b6020850182612be4565b506040820151612c3e6040850182612be4565b506060820151612c516060850182612bc3565b506080820151612c646080850182612bf3565b50505050565b6000612c768383612c02565b60a08301905092915050565b6000602082019050919050565b6000612c9a82612b97565b612ca48185612ba2565b9350612caf83612bb3565b8060005b83811015612ce0578151612cc78882612c6a565b9750612cd283612c82565b925050600181019050612cb3565b5085935050505092915050565b60006020820190508181036000830152612d078184612c8f565b905092915050565b600060208284031215612d2557612d24612878565b5b6000612d3384828501612ac5565b91505092915050565b600080fd5b600080fd5b7f4e487b7100000000000000000000000000000000000000000000000000000000600052604160045260246000fd5b612d7e82612983565b810181811067ffffffffffffffff82111715612d9d57612d9c612d46565b5b80604052505050565b6000612db061286e565b9050612dbc8282612d75565b919050565b600067ffffffffffffffff821115612ddc57612ddb612d46565b5b612de582612983565b9050602081019050919050565b82818337600083830152505050565b6000612e14612e0f84612dc1565b612da6565b905082815260208101848484011115612e3057612e2f612d41565b5b612e3b848285612df2565b509392505050565b600082601f830112612e5857612e57612d3c565b5b8135612e68848260208601612e01565b91505092915050565b60008060408385031215612e8857612e87612878565b5b600083013567ffffffffffffffff811115612ea657612ea561287d565b5b612eb285828601612e43565b9250506020612ec385828601612a10565b9150509250929050565b60008060408385031215612ee457612ee3612878565b5b6000612ef285828601612a10565b9250506020612f0385828601612a10565b9150509250929050565b612f1681612907565b8114612f2157600080fd5b50565b600081359050612f3381612f0d565b92915050565b60008060408385031215612f5057612f4f612878565b5b6000612f5e85828601612ac5565b9250506020612f6f85828601612f24565b9150509250929050565b600067ffffffffffffffff821115612f9457612f93612d46565b5b612f9d82612983565b9050602081019050919050565b6000612fbd612fb884612f79565b612da6565b905082815260208101848484011115612fd957612fd8612d41565b5b612fe4848285612df2565b509392505050565b600082601f83011261300157613000612d3c565b5b8135613011848260208601612faa565b91505092915050565b6000806000806080858703121561303457613033612878565b5b600061304287828801612ac5565b945050602061305387828801612ac5565b935050604061306487828801612a10565b925050606085013567ffffffffffffffff8111156130855761308461287d565b5b61309187828801612fec565b91505092959194509250565b600080604083850312156130b4576130b3612878565b5b60006130c285828601612ac5565b92505060206130d385828601612ac5565b9150509250929050565b7f4e487b7100000000000000000000000000000000000000000000000000000000600052602260045260246000fd5b6000600282049050600182168061312457607f821691505b602082108103613137576131366130dd565b5b50919050565b60006060820190506131526000830186612a84565b61315f6020830185612b1a565b61316c6040830184612a84565b949350505050565b7f4e487b7100000000000000000000000000000000000000000000000000000000600052601160045260246000fd5b60006131ae826129ef565b91506131b9836129ef565b92508282019050808211156131d1576131d0613174565b5b92915050565b7f4e487b7100000000000000000000000000000000000000000000000000000000600052603260045260246000fd5b6000613211826129ef565b91507fffffffffffffffffffffffffffffffffffffffffffffffffffffffffffffffff820361324357613242613174565b5b600182019050919050565b7f4f6e6c79206974656d206f776e65722063616e20706572666f726d207468697360008201527f206f7065726174696f6e00000000000000000000000000000000000000000000602082015250565b60006132aa602a83612948565b91506132b58261324e565b604082019050919050565b600060208201905081810360008301526132d98161329d565b9050919050565b7f5072696365206d75737420626520657175616c20746f206c697374207072696360008201527f6500000000000000000000000000000000000000000000000000000000000000602082015250565b600061333c602183612948565b9150613347826132e0565b604082019050919050565b6000602082019050818103600083015261336b8161332f565b9050919050565b600061337d826129ef565b9150600082036133905761338f613174565b5b600182039050919050565b60006133a6826129ef565b91506133b1836129ef565b92508282039050818111156133c9576133c8613174565b5b92915050565b7f4f6e6c79206f776e6572206f6620746865206d61726b6574706c61636520636160008201527f6e206368616e676520746865206c697374696e67207072696365000000000000602082015250565b600061342b603a83612948565b9150613436826133cf565b604082019050919050565b6000602082019050818103600083015261345a8161341e565b9050919050565b7f506c65617365207375626d6974207468652061736b696e67207072696365206960008201527f6e206f7264657220746f20636f6d706c65746520746865207075726368617365602082015250565b60006134bd604083612948565b91506134c882613461565b604082019050919050565b600060208201905081810360008301526134ec816134b0565b9050919050565b600081905092915050565b60006135098261293d565b61351381856134f3565b9350613523818560208601612959565b80840191505092915050565b600061353b82856134fe565b915061354782846134fe565b91508190509392505050565b60008190508160005260206000209050919050565b60006020601f8301049050919050565b600082821b905092915050565b6000600883026135b57fffffffffffffffffffffffffffffffffffffffffffffffffffffffffffffffff82613578565b6135bf8683613578565b95508019841693508086168417925050509392505050565b6000819050919050565b60006135fc6135f76135f2846129ef565b6135d7565b6129ef565b9050919050565b6000819050919050565b613616836135e1565b61362a61362282613603565b848454613585565b825550505050565b600090565b61363f613632565b61364a81848461360d565b505050565b5b8181101561366e57613663600082613637565b600181019050613650565b5050565b601f8211156136b35761368481613553565b61368d84613568565b8101602085101561369c578190505b6136b06136a885613568565b83018261364f565b50505b505050565b600082821c905092915050565b60006136d6600019846008026136b8565b1980831691505092915050565b60006136ef83836136c5565b9150826002028217905092915050565b6137088261293d565b67ffffffffffffffff81111561372157613720612d46565b5b61372b825461310c565b613736828285613672565b600060209050601f8311600181146137695760008415613757578287015190505b61376185826136e3565b8655506137c9565b601f19841661377786613553565b60005b8281101561379f5784890151825560018201915060208501945060208101905061377a565b868310156137bc57848901516137b8601f8916826136c5565b8355505b6001600288020188555050505b505050505050565b7f5072696365206d7573742062652067726561746572207468616e203000000000600082015250565b6000613807601c83612948565b9150613812826137d1565b602082019050919050565b60006020820190508181036000830152613836816137fa565b9050919050565b7f5072696365206d75737420626520657175616c20746f206c697374696e67207060008201527f7269636500000000000000000000000000000000000000000000000000000000602082015250565b6000613899602483612948565b91506138a48261383d565b604082019050919050565b600060208201905081810360008301526138c88161388c565b9050919050565b600060a0820190506138e46000830188612b1a565b6138f16020830187612a84565b6138fe6040830186612a84565b61390b6060830185612b1a565b6139186080830184612913565b9695505050505050565b600081519050919050565b600082825260208201905092915050565b600061394982613922565b613953818561392d565b9350613963818560208601612959565b61396c81612983565b840191505092915050565b600060808201905061398c6000830187612a84565b6139996020830186612a84565b6139a66040830185612b1a565b81810360608301526139b8818461393e565b905095945050505050565b6000815190506139d2816128ae565b92915050565b6000602082840312156139ee576139ed612878565b5b60006139fc848285016139c3565b91505092915050565b6000604082019050613a1a6000830185612a84565b613a276020830184612b1a565b9392505050565b7f4e487b7100000000000000000000000000000000000000000000000000000000600052601260045260246000fdfea26469706673582212203b65c4ef7aa315fd65633e6ca9b21455c5d17fa14f3cd7b9456cb1f5d26c5e1564736f6c63430008180033",
  "linkReferences": {},
  "deployedLinkReferences": {}
}